{
  "contractName": "AddFiler",
  "abi": [
    {
      "anonymous": false,
      "inputs": [
        {
          "indexed": false,
          "name": "userAddress",
          "type": "address"
        }
      ],
      "name": "LogUserCreated",
      "type": "event"
    },
    {
      "constant": true,
      "inputs": [
        {
          "name": "userAddress",
          "type": "address"
        }
      ],
      "name": "hasUser",
      "outputs": [
        {
          "name": "takenAddress",
          "type": "bool"
        }
      ],
      "payable": false,
      "stateMutability": "view",
      "type": "function"
    },
    {
      "constant": true,
      "inputs": [
        {
          "name": "username",
          "type": "bytes16"
        }
      ],
      "name": "usernameTaken",
      "outputs": [
        {
          "name": "takenUsername",
          "type": "bool"
        }
      ],
      "payable": false,
      "stateMutability": "view",
      "type": "function"
    },
    {
      "constant": false,
      "inputs": [
        {
          "name": "username",
          "type": "bytes16"
        },
        {
          "name": "ipfsHash",
          "type": "bytes"
        }
      ],
      "name": "createUser",
      "outputs": [
        {
          "name": "success",
          "type": "bool"
        }
      ],
      "payable": false,
      "stateMutability": "nonpayable",
      "type": "function"
    },
    {
      "constant": true,
      "inputs": [],
      "name": "getUserCount",
      "outputs": [
        {
          "name": "count",
          "type": "uint256"
        }
      ],
      "payable": false,
      "stateMutability": "view",
      "type": "function"
    }
  ],
  "bytecode": "0x608060405234801561001057600080fd5b50610527806100206000396000f300608060405260043610610062576000357c0100000000000000000000000000000000000000000000000000000000900463ffffffff16806316b7addf14610067578063402f707e146100bf578063a6c4ec0e1461015d578063b5cb15f7146101b8575b600080fd5b34801561007357600080fd5b506100a560048036038101908080356fffffffffffffffffffffffffffffffff191690602001909291905050506101e3565b604051808215151515815260200191505060405180910390f35b3480156100cb57600080fd5b5061014360048036038101908080356fffffffffffffffffffffffffffffffff19169060200190929190803590602001908201803590602001908080601f0160208091040260200160405190810160405280939291908181526020018383808284378201915050505050509192919290505050610228565b604051808215151515815260200191505060405180910390f35b34801561016957600080fd5b5061019e600480360381019080803573ffffffffffffffffffffffffffffffffffffffff1690602001909291905050506103ff565b604051808215151515815260200191505060405180910390f35b3480156101c457600080fd5b506101cd610449565b6040518082815260200191505060405180910390f35b60008060016000846fffffffffffffffffffffffffffffffff19166fffffffffffffffffffffffffffffffff1916815260200190815260200160002054119050919050565b6000610233336103ff565b15151561023f57600080fd5b610248836101e3565b15151561025457600080fd5b60033390806001815401808255809150509060018203906000526020600020016000909192909190916101000a81548173ffffffffffffffffffffffffffffffffffffffff021916908373ffffffffffffffffffffffffffffffffffffffff16021790555050600483908060018154018082558091505090600182039060005260206000209060029182820401919006601002909192909190916101000a8154816fffffffffffffffffffffffffffffffff021916908370010000000000000000000000000000000090040217905550506005829080600181540180825580915050906001820390600052602060002001600090919290919091509080519060200190610362929190610456565b50506001600380549050036000803373ffffffffffffffffffffffffffffffffffffffff1673ffffffffffffffffffffffffffffffffffffffff1681526020019081526020016000208190555060016003805490500360016000856fffffffffffffffffffffffffffffffff19166fffffffffffffffffffffffffffffffff19168152602001908152602001600020819055506001905092915050565b6000806000808473ffffffffffffffffffffffffffffffffffffffff1673ffffffffffffffffffffffffffffffffffffffff16815260200190815260200160002054119050919050565b6000600380549050905090565b828054600181600116156101000203166002900490600052602060002090601f016020900481019282601f1061049757805160ff19168380011785556104c5565b828001600101855582156104c5579182015b828111156104c45782518255916020019190600101906104a9565b5b5090506104d291906104d6565b5090565b6104f891905b808211156104f45760008160009055506001016104dc565b5090565b905600a165627a7a72305820009a740ff8d387e8cbaa83a54bbf01755d3fd831a52df28b3797a0ca4a4a24830029",
  "source": "pragma solidity ^0.4.19;\n\n\ncontract AddFiler {\n    // We declare high level variables & types used throughout contract\n    mapping(address => uint256) private addressToIndex;\n    mapping(bytes16 => uint256) private usernameToIndex;\n    address owner;\n    address[] private addresses;\n    bytes16[] private usernames;\n    bytes[] private ipfsHashes;\n\n    // Events will let us emit 'callbacks' back for the User Interface to pickup\n    event LogUserCreated(address userAddress);\n\n    // Logic in functions can be used to ensure validations that accounts have a\n    // unique address or username\n    function hasUser(address userAddress)\n        public\n        view\n        returns (bool takenAddress)\n    {\n        return (addressToIndex[userAddress] > 0);\n    }\n\n    function usernameTaken(bytes16 username)\n        public\n        view\n        returns (bool takenUsername)\n    {\n        return (usernameToIndex[username] > 0);\n    }\n\n    function createUser(bytes16 username, bytes ipfsHash)\n        public\n        returns (bool success)\n    {\n        // first we validate inputs using the helpers\n\n        require(!hasUser(msg.sender));\n        require(!usernameTaken(username));\n\n        // then collect the senders address into the array\n        addresses.push(msg.sender);\n\n        // collect the user name\n        usernames.push(username);\n\n        // save the IPFS hash that is the reference to an uploaded profile picture\n        // IPFS is a web 3.0 File System will cover below\n        ipfsHashes.push(ipfsHash);\n\n        // index new entry based on the existing size of addresses in the contract\n        addressToIndex[msg.sender] = addresses.length - 1;\n        usernameToIndex[username] = addresses.length - 1;\n\n        return true;\n    }\n\n    // Other public functions a DApp might want for use in the front-end\n    function getUserCount() public view returns (uint256 count) {\n        return addresses.length;\n    }\n}\n",
  "sourcePath": "/Users/shilpakaushik/Desktop/advanced Smart Contract/F_Assign/contracts/FileLogin.sol",
  "compiler": {
    "name": "solc",
    "version": "0.4.26+commit.4563c3fc.Emscripten.clang"
  },
  "schemaVersion": "2.0.3",
  "updatedAt": "2020-03-29T23:08:14.727Z"
}